{
  "_format": "hh-sol-artifact-1",
  "contractName": "Escrow",
  "sourceName": "contracts/Escrow.sol",
  "abi": [
    {
      "inputs": [
        {
          "internalType": "address",
          "name": "payee",
          "type": "address"
        },
        {
          "internalType": "address",
          "name": "releaser",
          "type": "address"
        }
      ],
      "name": "depositFor",
      "outputs": [],
      "stateMutability": "payable",
      "type": "function"
    },
    {
      "inputs": [
        {
          "internalType": "address",
          "name": "payer",
          "type": "address"
        },
        {
          "internalType": "address",
          "name": "payee",
          "type": "address"
        }
      ],
      "name": "release",
      "outputs": [],
      "stateMutability": "payable",
      "type": "function"
    }
  ],
  "bytecode": "0x608060405234801561001057600080fd5b50610397806100206000396000f3fe6080604052600436106100295760003560e01c806348b750441461002e57806393fceebe1461004a575b600080fd5b61004860048036038101906100439190610194565b610066565b005b610064600480360381019061005f9190610194565b610122565b005b600082823360405160200161007d939291906101e7565b60405160208183030381529060405280519060200120905060008060008381526020019081526020016000205490508060008084815260200190815260200160002060008282546100ce919061027a565b925050819055508273ffffffffffffffffffffffffffffffffffffffff166108fc829081150290604051600060405180830381858888f1935050505015801561011b573d6000803e3d6000fd5b5050505050565b6000338383604051602001610139939291906101e7565b6040516020818303038152906040528051906020012090503460008083815260200190815260200160002060008282546101739190610224565b92505081905550505050565b60008135905061018e8161034a565b92915050565b600080604083850312156101a757600080fd5b60006101b58582860161017f565b92505060206101c68582860161017f565b9150509250929050565b6101e16101dc826102ae565b6102ea565b82525050565b60006101f382866101d0565b60148201915061020382856101d0565b60148201915061021382846101d0565b601482019150819050949350505050565b600061022f826102e0565b915061023a836102e0565b9250827fffffffffffffffffffffffffffffffffffffffffffffffffffffffffffffffff0382111561026f5761026e61030e565b5b828201905092915050565b6000610285826102e0565b9150610290836102e0565b9250828210156102a3576102a261030e565b5b828203905092915050565b60006102b9826102c0565b9050919050565b600073ffffffffffffffffffffffffffffffffffffffff82169050919050565b6000819050919050565b60006102f5826102fc565b9050919050565b60006103078261033d565b9050919050565b7f4e487b7100000000000000000000000000000000000000000000000000000000600052601160045260246000fd5b60008160601b9050919050565b610353816102ae565b811461035e57600080fd5b5056fea264697066735822122027fad1b162875b88c16633c6bf0705f22b3dee34746ea8c357528a06bd69420264736f6c63430008040033",
  "linkReferences": {},
  "deployedLinkReferences": {}
}