{
  "_format": "hh-sol-artifact-1",
  "contractName": "Escrow",
  "sourceName": "contracts/Escrow.sol",
  "abi": [
    {
      "inputs": [
        {
          "internalType": "address",
          "name": "payee",
          "type": "address"
        },
        {
          "internalType": "address",
          "name": "releaser",
          "type": "address"
        }
      ],
      "name": "depositFor",
      "outputs": [],
      "stateMutability": "payable",
      "type": "function"
    },
    {
      "inputs": [
        {
          "internalType": "address",
          "name": "payer",
          "type": "address"
        },
        {
          "internalType": "address",
          "name": "payee",
          "type": "address"
        }
      ],
      "name": "refund",
      "outputs": [],
      "stateMutability": "payable",
      "type": "function"
    },
    {
      "inputs": [
        {
          "internalType": "address",
          "name": "payer",
          "type": "address"
        },
        {
          "internalType": "address",
          "name": "payee",
          "type": "address"
        }
      ],
      "name": "release",
      "outputs": [],
      "stateMutability": "payable",
      "type": "function"
    }
  ],
  "bytecode": "0x608060405234801561001057600080fd5b50610424806100206000396000f3fe6080604052600436106100345760003560e01c806348b75044146100395780635e30b8a61461005557806393fceebe14610071575b600080fd5b610053600480360381019061004e9190610255565b61008d565b005b61006f600480360381019061006a9190610255565b610138565b005b61008b60048036038101906100869190610255565b6101e3565b005b60008282336040516020016100a4939291906102a8565b60405160208183030381529060405280519060200120905060008060008381526020019081526020016000205490506000806000848152602001908152602001600020819055508273ffffffffffffffffffffffffffffffffffffffff166108fc829081150290604051600060405180830381858888f19350505050158015610131573d6000803e3d6000fd5b5050505050565b600082823360405160200161014f939291906102a8565b60405160208183030381529060405280519060200120905060008060008381526020019081526020016000205490506000806000848152602001908152602001600020819055508373ffffffffffffffffffffffffffffffffffffffff166108fc829081150290604051600060405180830381858888f193505050501580156101dc573d6000803e3d6000fd5b5050505050565b60003383836040516020016101fa939291906102a8565b60405160208183030381529060405280519060200120905034600080838152602001908152602001600020600082825461023491906102e5565b92505081905550505050565b60008135905061024f816103d7565b92915050565b6000806040838503121561026857600080fd5b600061027685828601610240565b925050602061028785828601610240565b9150509250929050565b6102a261029d8261033b565b610377565b82525050565b60006102b48286610291565b6014820191506102c48285610291565b6014820191506102d48284610291565b601482019150819050949350505050565b60006102f08261036d565b91506102fb8361036d565b9250827fffffffffffffffffffffffffffffffffffffffffffffffffffffffffffffffff038211156103305761032f61039b565b5b828201905092915050565b60006103468261034d565b9050919050565b600073ffffffffffffffffffffffffffffffffffffffff82169050919050565b6000819050919050565b600061038282610389565b9050919050565b6000610394826103ca565b9050919050565b7f4e487b7100000000000000000000000000000000000000000000000000000000600052601160045260246000fd5b60008160601b9050919050565b6103e08161033b565b81146103eb57600080fd5b5056fea26469706673582212207c96a7390427bc5afe4c83efc2d62914482db21693afe883e0295d686d9aa6a064736f6c63430008040033",
  "linkReferences": {},
  "deployedLinkReferences": {}
}